:020000040800F2
:1000000000000220853C0008A1190008A31900087F
:10001000A5190008A7190008A91900080000000088
:10002000000000000000000000000000AB19000804
:10003000AD19000800000000AF190008B119000850
:10004000D53C0008D53C0008D53C0008D53C00084C
:10005000D53C0008D53C0008D53C0008D53C00083C
:10006000D53C0008D53C0008D53C0008D53C00082C
:10007000D53C0008D53C0008D53C0008D53C00081C
:10008000D53C0008D53C0008D53C0008D53C00080C
:10009000D53C0008D53C0008D53C0008D53C0008FC
:1000A000D53C0008D53C0008D53C0008D53C0008EC
:1000B000D53C0008D53C0008D53C0008D53C0008DC
:1000C000D53C0008D53C0008D53C0008D53C0008CC
:1000D000D53C0008D53C0008B9190008D53C0008FB
:1000E000D53C0008D53C0008D53C0008D53C0008AC
:1000F000D53C0008D53C0008D53C0008D53C00089C
:10010000D53C0008D53C0008D53C0008D53C00088B
:10011000D53C0008D53C0008D53C0008D53C00087B
:10012000C9190008D53C0008D53C0008D9190008B9
:10013000D53C0008D53C0008D53C0008D53C00085B
:10014000D53C0008D53C0008D53C0008D53C00084B
:10015000D53C0008D53C0008D53C0008D53C00083B
:10016000D53C0008D53C0008D53C0008D53C00082B
:10017000D53C0008D53C0008D53C00080000000034
:08018000D53C0008D53C000845
:1001900010B5054C237833B9044B13B10448AFF3C1
:1001A00000800123237010BD140200200000000015
:1001B0000063000808B5034B1BB103490348AFF3C4
:1001C000008008BD00000000180200200063000845
:1001D00081F0004102E000BF83F0004330B54FEAF8
:1001E00041044FEA430594EA050F08BF90EA020F65
:1001F0001FBF54EA000C55EA020C7FEA645C7FEAF8
:10020000655C00F0E2804FEA5454D4EB5555B8BF1A
:100210006D420CDD2C4480EA020281EA030382EA8B
:10022000000083EA010180EA020281EA0303362D1D
:1002300088BF30BD11F0004F4FEA01314FF4801CF0
:100240004CEA113102D0404261EB410113F0004F02
:100250004FEA03334CEA133302D0524263EB4303B9
:1002600094EA050F00F0A780A4F10104D5F1200E57
:100270000DDB02FA0EFC22FA05F2801841F10001B2
:1002800003FA0EF2801843FA05F359410EE0A5F186
:1002900020050EF1200E012A03FA0EFC28BF4CF0B7
:1002A000020C43FA05F3C01851EBE37101F000456D
:1002B00007D54FF0000EDCF1000C7EEB00006EEB7A
:1002C0000101B1F5801F1BD3B1F5001F0CD3490804
:1002D0005FEA30004FEA3C0C04F101044FEA44525B
:1002E00012F5800F80F09A80BCF1004F08BF5FEAE2
:1002F000500C50F1000041EB045141EA050130BDC2
:100300005FEA4C0C404141EB010111F4801FA4F164
:100310000104E9D191F0000F04BF01460020B1FAB9
:1003200081F308BF2033A3F10B03B3F120020CDAF1
:100330000C3208DD02F1140CC2F10C0201FA0CF0CF
:1003400021FA02F10CE002F11402D8BFC2F1200C34
:1003500001FA02F120FA0CFCDCBF41EA0C019040EA
:10036000E41AA2BF01EB0451294330BD6FEA040433
:100370001F3C1CDA0C340EDC04F11404C4F120021E
:1003800020FA04F001FA02F340EA030021FA04F330
:1003900045EA030130BDC4F10C04C4F1200220FA87
:1003A00002F001FA04F340EA0300294630BD21FAC5
:1003B00004F0294630BD94F0000F83F4801306BF8B
:1003C00081F480110134013D4EE77FEA645C18BF7F
:1003D0007FEA655C29D094EA050F08BF90EA020F16
:1003E00005D054EA000C04BF1946104630BD91EA0E
:1003F000030F1EBF0021002030BD5FEA545C05D111
:100400004000494128BF41F0004130BD14F580044F
:100410003CBF01F5801130BD01F0004545F0FE41C3
:1004200041F470014FF0000030BD7FEA645C1ABFF8
:10043000194610467FEA655C1CBF0B46024650EA2F
:10044000013406BF52EA033591EA030F41F400215B
:1004500030BD00BF90F0000F04BF0021704730B5E1
:100460004FF4806404F132044FF000054FF00001B6
:1004700050E700BF90F0000F04BF0021704730B577
:100480004FF4806404F1320410F0004548BF40424C
:100490004FF000013EE700BF42004FEAE2014FEAA1
:1004A00031014FEA02701FBF12F07F4393F07F4F7C
:1004B00081F06051704732F07F4208BF704793F07F
:1004C0007F4F04BF41F40021704730B54FF4607492
:1004D00001F0004521F000411CE700BF50EA010295
:1004E00008BF704730B54FF000050AE050EA01023E
:1004F00008BF704730B511F0004502D5404261EBAE
:1005000041014FF4806404F132045FEA915C3FF4EE
:10051000D8AE4FF003025FEADC0C18BF03325FEA8B
:10052000DC0C18BF033202EBDC02C2F1200300FA3C
:1005300003FC20FA02F001FA03FE40EA0E0021FA61
:1005400002F11444BDE600BF70B54FF0FF0C4CF44F
:10055000E06C1CEA11541DBF1CEA135594EA0C0F01
:1005600095EA0C0F00F0DEF82C4481EA030621EA3C
:100570004C5123EA4C5350EA013518BF52EA033577
:1005800041F4801143F4801338D0A0FB02CE4FF029
:100590000005E1FB02E506F00042E0FB03E54FF059
:1005A0000006E1FB03569CF0000F18BF4EF0010E51
:1005B000A4F1FF04B6F5007F64F5407404D25FEA4D
:1005C0004E0E6D4146EB060642EAC62141EA555100
:1005D0004FEAC52040EA5E504FEACE2EB4F1FD0C42
:1005E00088BFBCF5E06F1ED8BEF1004F08BF5FEAC0
:1005F000500E50F1000041EB045170BD06F0004672
:1006000046EA010140EA020081EA0301B4EB5C041E
:10061000C2BFD4EB0C0541EA045170BD41F4801116
:100620004FF0000E013C00F3AB8014F1360FDEBF3B
:10063000002001F0004170BDC4F10004203C35DA17
:100640000C341BDC04F11404C4F1200500FA05F39A
:1006500020FA04F001FA05F240EA020001F000423B
:1006600021F0004110EBD37021FA04F642EB0601B1
:100670005EEA430E08BF20EAD37070BDC4F10C04DB
:10068000C4F1200500FA04F320FA05F001FA04F29F
:1006900040EA020001F0004110EBD37041F100018B
:1006A0005EEA430E08BF20EAD37070BDC4F1200596
:1006B00000FA05F24EEA020E20FA04F301FA05F2FE
:1006C00043EA020321FA04F001F0004121FA04F2A6
:1006D00020EA020000EBD3705EEA430E08BF20EA76
:1006E000D37070BD94F0000F0FD101F000464000B0
:1006F00041EB010111F4801F08BF013CF7D041EA32
:10070000060195F0000F18BF704703F00046520035
:1007100043EB030313F4801F08BF013DF7D043EA06
:100720000603704794EA0C0F0CEA135518BF95EABC
:100730000C0F0CD050EA410618BF52EA4306D1D143
:1007400081EA030101F000414FF0000070BD50EA62
:10075000410606BF1046194652EA430619D094EAEC
:100760000C0F02D150EA013613D195EA0C0F05D1D6
:1007700052EA03361CBF104619460AD181EA03012A
:1007800001F0004141F0FE4141F470014FF00000E2
:1007900070BD41F0FE4141F4780170BD70B54FF07D
:1007A000FF0C4CF4E06C1CEA11541DBF1CEA1355FD
:1007B00094EA0C0F95EA0C0F00F0A7F8A4EB0504DF
:1007C00081EA030E52EA03354FEA013100F08880D6
:1007D0004FEA03334FF0805545EA131343EA12639F
:1007E0004FEA022245EA111545EA10654FEA002654
:1007F0000EF000419D4208BF964244F1FD0404F50D
:10080000407402D25B084FEA3202B61A65EB030568
:100810005B084FEA32024FF480104FF4002CB6EB25
:10082000020E75EB030E22BFB61A754640EA0C00A5
:100830005B084FEA3202B6EB020E75EB030E22BFE5
:10084000B61A754640EA5C005B084FEA3202B6EB26
:10085000020E75EB030E22BFB61A754640EA9C00E5
:100860005B084FEA3202B6EB020E75EB030E22BFB5
:10087000B61A754640EADC0055EA060E18D04FEA73
:10088000051545EA16754FEA06164FEAC30343EA13
:1008900052734FEAC2025FEA1C1CC0D111F4801FE0
:1008A0000BD141EA00014FF000004FF0004CB6E7D9
:1008B00011F4801F04BF01430020B4F1FD0C88BF78
:1008C000BCF5E06F3FF6AFAEB5EB030C04BFB6EB83
:1008D000020C5FEA500C50F1000041EB045170BD76
:1008E0000EF0004E4EEA113114EB5C04C2BFD4EBA3
:1008F0000C0541EA045170BD41F480114FF0000E27
:10090000013C90E645EA060E8DE60CEA135594EAA2
:100910000C0F08BF95EA0C0F3FF43BAF94EA0C0FA5
:100920000AD150EA01347FF434AF95EA0C0F7FF41A
:1009300025AF104619462CE795EA0C0F06D152EA6E
:1009400003353FF4FDAE1046194622E750EA410652
:1009500018BF52EA43067FF4C5AE50EA41047FF463
:100960000DAF52EA43057FF4EBAE12E74FF0FF3CC8
:1009700006E000BF4FF0010C02E000BF4FF0010C99
:100980004DF804CD4FEA410C7FEA6C5C4FEA430C12
:1009900018BF7FEA6C5C1BD001B050EA410C0CBF61
:1009A00052EA430C91EA030F02BF90EA020F0020C3
:1009B000704710F1000F91EA030F58BF994208BF2A
:1009C00090422CBFD8176FEAE37040F001007047E7
:1009D0004FEA410C7FEA6C5C02D150EA013C07D13E
:1009E0004FEA430C7FEA6C5CD6D152EA033CD3D089
:1009F0005DF8040B704700BF8446104662468C4683
:100A00001946634600E000BF01B5FFF7B7FF0028B5
:100A100048BF10F1000F01BD4DF808EDFFF7F4FFDE
:100A20000CBF012000205DF808FB00BF4DF808ED69
:100A3000FFF7EAFF34BF012000205DF808FB00BF8C
:100A40004DF808EDFFF7E0FF94BF012000205DF8AE
:100A500008FB00BF4DF808EDFFF7CEFF94BF012063
:100A600000205DF808FB00BF4DF808EDFFF7C4FF5C
:100A700034BF012000205DF808FB00BF4FEA4102AF
:100A800012F5001215D211D56FF47873B3EB6252E0
:100A900012D94FEAC12343F0004343EA505311F007
:100AA000004F23FA02F018BF404270474FF0000099
:100AB000704750EA013005D111F0004008BF6FF0D7
:100AC000004070474FF00000704700BF4FEA4102FE
:100AD000B2F1E04324BFB3F5001CDCF1FE5C0DD99C
:100AE00001F0004C4FEAC0024CEA5070B2F1004FE6
:100AF00040EB830008BF20F00100704711F0804FE9
:100B000021D113F13872BCBF01F00040704741F4AD
:100B100080114FEA5252C2F11802C2F1200C10FAB1
:100B20000CF320FA02F018BF40F001004FEAC12395
:100B30004FEAD32303FA0CFC40EA0C0023FA02F339
:100B40004FEA4303CCE77FEA625307D150EA01330F
:100B50001EBF4FF0FE4040F44000704701F00040DF
:100B600040F0FE4040F40000704700BF53B94AB95E
:100B7000002908BF00281CBF4FF0FF314FF0FF30A5
:100B800000F072B9ADF1080C6DE904CE00F006F882
:100B9000DDF804E0DDE9022304B070472DE9F047F9
:100BA000089E04468846002B4BD18A42154667D9D9
:100BB000B2FA82F24AB1C2F1200701FA02F320FA36
:100BC00007F7954047EA030894404FEA154E230C77
:100BD000B8FBFEF71FFA85FC0EFB178843EA0843B3
:100BE00007FB0CF1994209D9EB1807F1FF3080F0AF
:100BF0001B81994240F21881023F2B445B1AA4B238
:100C0000B3FBFEF00EFB103344EA034400FB0CFC84
:100C1000A44509D92C1900F1FF3380F00781A445C0
:100C200040F2048102382C4440EA0740A4EB0C0453
:100C300000271EB1D4400023C6E900433946BDE871
:100C4000F0878B4209D9002E00F0EB800027C6E91F
:100C5000000138463946BDE8F087B3FA83F7002F24
:100C600047D18B4202D3824200F2FA80841A61EBB0
:100C7000030301209846002EE0D0C6E90048DDE7D6
:100C800002B9FFDEB2FA82F2002A40F08F80491BDF
:100C90004FEA154E1FFA85F80127B1FBFEFC230C25
:100CA0000EFB1C1143EA014308FB0CF1994207D9E2
:100CB000EB180CF1FF3002D2994200F2CD8084464D
:100CC000591AA3B2B1FBFEF00EFB101443EA044420
:100CD00008FB00F8A04507D92C1900F1FF3302D218
:100CE000A04500F2B6801846A4EB080440EA0C4088
:100CF0009FE7C7F1200CBB4022FA0CFE4EEA030E20
:100D000001FA07F420FA0CF521FA0CF34FEA1E4819
:100D10002543B3FBF8F92C0C08FB19331FFA8EFAA4
:100D200044EA034309FB0AF49C4202FA07F200FA80
:100D300007F10BD91EEB030309F1FF3080F0878028
:100D40009C4240F28480A9F1020973441B1BADB29E
:100D5000B3FBF8F008FB103345EA034400FB0AFA42
:100D6000A24508D91EEB040400F1FF336BD2A24563
:100D700069D90238744440EA0940A0FB0289A4EB17
:100D80000A044C45C2464B4654D351D0002E69D07C
:100D9000B1EB0A0564EB030404FA0CFCFD40FC40D3
:100DA0004CEA0505C6E90054002747E7C2F12003D5
:100DB00020FA03F7954001FA02F021FA03F34FEA13
:100DC000154E3843010CB3FBFEF71FFA85F80EFBF6
:100DD000173341EA034107FB08F38B4204FA02F49C
:100DE00007D9691807F1FF3C2FD28B422DD9023F5A
:100DF0002944CB1A81B2B3FBFEF00EFB103341EA5B
:100E0000034100FB08F38B4207D9691800F1FF3C4E
:100E100017D28B4215D902382944C91A40EA07472C
:100E20003BE73746304609E70746E7E61846FBE664
:100E30004145ABD2B8EB020A69EB0E02013813460A
:100E4000A4E76046E9E7184695E76746D1E781469B
:100E50007CE702382C4447E7ACF1020C2B442FE727
:100E6000384608E73746E9E6704700BF10F8012B1F
:100E700011F8013B012A28BF9A42F7D0D01A7047D7
:100E8000034613F8012B002AFBD1181A01387047CA
:100E900001F0FF01102A2BDB10F0070F08D010F82B
:100EA000013B013A8B422DD010F0070F42B3F6D12F
:100EB000F0B441EA012141EA014122F007047FF048
:100EC00000070023F0E80256083C85EA010586EA9F
:100ED000010685FA47F5A3FA87F586FA47F6A5FADB
:100EE00087F68EB9EED1F0BC01F0FF0102F00702E7
:100EF00032B110F8013B013A83EA010313B1F8D192
:100F00000020704701387047002D06BF3546033872
:100F1000073815F0010F07D1013015F4807F02BFAB
:100F2000013015F4C03F0130F0BC0138704700BFFC
:100F30004FEA410C7FEA6C5C02D150EA013C0AD1D5
:100F40004FEA430C7FEA6C5C02D152EA033C02D1C7
:100F50004FF0000070474FF001007047F0B58BB0C4
:100F60000024059406940794089409940194254B51
:100F70001A6B42F080021A631A6B02F0800201922F
:100F8000019A02941A6B42F001021A631A6B02F082
:100F900001020292029A03941A6B42F008021A6349
:100FA0001A6B02F008020392039A04941A6B42F03F
:100FB00002021A631B6B03F002030493049B124F9B
:100FC00022461021384601F005F9104D22464FF413
:100FD0007041284601F0FEF810230593012606967D
:100FE0000794089405A9384601F010F84FF47043AF
:100FF000059306960794089405A9284601F006F87B
:101000000BB0F0BD0038024000000240000C02406E
:1010100010B582B0002401940D4B1A6B42F480028B
:101020001A631B6B03F480030193019B2246012189
:10103000382000F07BFD382000F0ACFD2246022174
:101040003B2000F073FD3B2000F0A4FD02B010BD7A
:101050000038024008B500221146262000F066FD47
:10106000262000F097FD08BD2DE9F04786B005AFBA
:101070000023ADF814308DF816307C4D0A26029608
:1010800001240194B42300932346F422EE21284640
:1010900001F0D4FB082000F023FD02960194009794
:1010A0002346F622EF21284601F07CFC02960194AB
:1010B0000DF1150300932346F722EF21284601F096
:1010C00071FC029601940DF1160300932346F82259
:1010D000EF21284601F066FC9DF814409DF815703C
:1010E0003F0207EB04479DF81640614B93F83760C9
:1010F000C6F108031C4127445E4B1D68A5F57A65BF
:10110000DFF880A1BAF90E4005FB05F0FFF7B2F950
:101110000022594BFFF718FA804689462046FFF710
:10112000A9F942464B46FFF70FFA00224FF07D53D4
:10113000FFF70AFAFFF7A2FC0446BAF9020005FB22
:1011400000F0FFF797F900224FF07D53FFF7FCF90D
:10115000FFF794FC0444BAF9000004EB8004B440A7
:1011600002347AD4A410DFF81CA1BAF9040005FBFC
:1011700000F0FFF77FF90022404BFFF7E5F9FFF79A
:101180007DFC0546BAF90C00FFF774F942464B4660
:10119000FFF7DAF900223A4BFFF7D6F9FFF76EFCBA
:1011A000284402305BD48010364BDB8800F50040C9
:1011B00000FB03F0FFF74EF900224FF07C53FFF7DE
:1011C000C3F9FFF75BFC3F1B4CF25034344104FB86
:1011D00007F4002C45DB640094FBF0F42046FFF795
:1011E00049F906460F460022274BFFF7ADF90246A4
:1011F0000B46FFF7A9F9FFF741FC40F6DE3303FB8E
:1012000000F0FFF737F900221D4BFFF79DF9FFF7BC
:1012100035FC05461D4800FB04F0FFF72BF90022C2
:10122000174BFFF791F9FFF729FC284400F6CF6030
:10123000FFF720F90022164BFFF786F902460B460E
:1012400030463946FEF7CAFFFFF718FC07EE900A52
:10125000B8EEE70A06B0BDE8F087033482E7033052
:10126000A1E794FBF0F46400B8E700BF500200204F
:1012700000000020DC0200200000303F0000203F82
:101280000000F03EE00200200000703F43E3FFFF5B
:101290000000B03FF0B587B006AF002327F8043D4B
:1012A000344D0A260296012401942E2300932346EE
:1012B000F422EE21284601F0C1FA052000F010FCCE
:1012C0000296019400972346F722EF21284601F069
:1012D00069FB029601940DF1150300932346F62253
:1012E000EF21284601F05EFB9DF815309DF8144073
:1012F00004EB0324204D6B89E41A2889FFF7BAF820
:1013000000224FF07C53FFF71FF906460F46204698
:10131000FFF7B0F832463B46FFF716F9FFF7AEFB92
:101320000446B5F91200FFF7A5F80022134BFFF7AA
:101330000BF906460F46B5F914002044FFF79AF85A
:1013400002460B4630463946FFF728FAFFF796FB70
:1013500020440B4B18600830FFF78CF80022094B33
:10136000FFF7F2F8FFF78AFB07EE900AB8EEE70AFC
:1013700007B0F0BD50020020E00200200000A040B5
:10138000DC0200200000B03F30B583B0164D0122D2
:101390001021284600F01EFF06236A463B21134811
:1013A00002F0A8F89DF800109DF80130104C22685A
:1013B00003EB012313809DF802109DF8033062684F
:1013C00003EB012313809DF804109DF80530A268FB
:1013D00003EB0123138000221021284600F0FAFEBF
:1013E000204603B030BD00BF00000240F8020020DC
:1013F00030020020000000002DE9F04184B00446D6
:10140000FFF7C2FF45688068FFF746F806460F46BB
:101410002846FFF741F847EC116B41EC100B02F046
:101420005BFC00224A4B51EC100BFFF78DF846A3F2
:10143000D3E90023FFF7B2F9FFF748FB054645491A
:101440002046FFF713FD002838D043492046FFF718
:101450000DFD00284FD041492046FFF707FD002829
:101460005FD03F492046FFF701FD002840D1FFF73C
:10147000FBFD10EE104AFFF70DFF10EE108A20461C
:10148000FFF70AF806460F46364C2846FFF704F8E1
:10149000CDE902014046FEF7FFFFCDE900013246EB
:1014A0003B463149204603F043FB2046FFF7E8FC6A
:1014B00082B221462D4802F0C8FA19E0FFF7EAFE91
:1014C00010EE100AFEF7E8FF264C02460B462849AC
:1014D000204603F02DFB2046FFF7D2FC82B22146C6
:1014E000224802F0B2FA4FF48051224800F078FE10
:1014F00004B0BDE8F081FFF7CDFE10EE100AFEF754
:10150000CBFF184C02460B461B49204603F010FB4C
:101510002046FFF7B5FC82B22146144802F095FA46
:10152000E6E72846FEF7B8FF0E4C02460B46134985
:10153000204603F0FDFA2046FFF7A2FC82B22146C6
:101540000A4802F082FAD3E7182D4454FB210940DF
:1015500000806640486300085C630008746300080C
:101560008463000804000020886300085003002002
:101570004C630008000C02406063000878630008B8
:10158000134B1A780A2A03D0124B1B7B312B17D925
:1015900070B500250F4B1D730F4C104E2146304681
:1015A00003F0E6FA3046FFF727FF4FF400410C48FE
:1015B00000F016FE33222946204602F055FE70BD8B
:1015C0000549CA540133DBB2024A1373537370479F
:1015D0005C0400203002002060040020A8020020EB
:1015E000000C024072B6FEE708B50A480A4B0360D9
:1015F0004FF4E133436000238360C36003610C2236
:1016000042618361C36102F0F1F900B908BDFFF7DF
:10161000E9FF00BF500300200044004008B50B481C
:101620000B4B03600B4B4360002383605222C2606C
:101630004FF48042026143618361C361036201F040
:1016400023F800B908BDFFF7CDFF00BF500200200E
:1016500000540040A086010008B50D480D4B036002
:101660004FF48273436000238360C36002220261EF
:1016700043614FF400728261C3610362436283621B
:101680000A23C36201F0F6FE00B908BDFFF7AAFF06
:10169000F80200200030014000B595B03022002152
:1016A00008A802F0E1FD0023039304930593069339
:1016B000079301931F4A116C41F080511164126C21
:1016C00002F080520192019A02931B4A116841F480
:1016D00080411160126802F480420292029A022252
:1016E000089201210B9110210C910E920F93082367
:1016F0001093A823119312920423139308A801F0C6
:10170000B9FA98B90F230393022304930023059396
:101710004FF4A05306934FF480530793052103A879
:1017200001F00AFD20B915B05DF804FBFFF75AFF80
:10173000FFF758FF003802400070004008B500F085
:10174000A3F9FFF7A9FFFFF709FCFFF761FCFFF71B
:101750004BFFFFF763FFFFF77FFFFFF77BFC0C4CAE
:101760002268D36843F02003D3600A4D2846FFF770
:1017700087FB82B22946204602F067F9064B1A68B9
:10178000136843F0400313600A2000F0A9F9FBE757
:101790005003002004000020F802002082B0002145
:1017A00000910B4B5A6C42F480425A645A6C02F41A
:1017B00080420092009A01911A6C42F080521A64A1
:1017C0001B6C03F080530193019B02B0704700BF74
:1017D0000038024030B589B0002303930493059389
:1017E000069307930268154B9A4201D009B030BDA9
:1017F00000250195124C236B43F002032363236BF6
:1018000003F002030193019BC0230393122304936B
:1018100001230593032306930423079303A909488F
:1018200000F0F4FB0295236C43F400132364236C53
:1018300003F400130293029BD8E700BF005400405A
:10184000003802400004024030B589B00023039301
:10185000049305930693079302682F4B9A4201D095
:1018600009B030BD04460025019503F584335A6C58
:1018700042F480525A645A6C02F480520192019AE6
:1018800002951A6B42F001021A631B6B03F001030D
:101890000293029BE0230393022304930323069302
:1018A0000523079303A91D4800F0B0FB1C481D4BFE
:1018B00003604FF0C06343608560C5604FF4806390
:1018C000036145618561C5610562456200F002FA08
:1018D000D8B9134BE3649C631348144B03604FF077
:1018E000C0634360402383600023C3604FF4806281
:1018F000026143618361C3610362436200F0EAF9FC
:1019000030B9094BA3649C63AAE7FFF76BFEE0E7DD
:10191000FFF768FEF5E700BF00300140000002401D
:101920009003002010640240FC0300205864024031
:1019300000B589B00023039304930593069307939E
:101940000268154B9A4202D009B05DF804FB0021F1
:10195000019103F5FA331A6C42F400321A641A6CDE
:1019600002F400320192019A02911A6B42F00102D4
:101970001A631B6B03F001030293029B0C23039376
:1019800002230493032306930723079303A9034821
:1019900000F03CFBD8E700BF0044004000000240DC
:1019A000FEE7FEE7FEE7FEE7FEE770477047704799
:1019B00008B500F083F808BD08B5024802F0C6F883
:1019C00008BD00BF5003002008B5024800F030FAFF
:1019D00008BD00BF9003002008B5024800F028FAB7
:1019E00008BD00BFFC03002008B503460B4A12687F
:1019F00042B10A4A106803446A46934206D8074A2D
:101A0000136008BD054A06491160F2E702F002FCC6
:101A10000C2303604FF0FF30F3E700BF40020020CB
:101A2000A0040020054BD3F8882042F47002C3F8CC
:101A300088204FF000629A60704700BF00ED00E020
:101A400010B504460E4B18784FF47A73B3FBF0F3DD
:101A50000C4A1068B0FBF3F000F0AAF868B90F2C3C
:101A600001D901200AE0002221464FF0FF3000F0AA
:101A70005DF8034B5C60002000E0012010BD00BF5A
:101A80003C0000203800002008B50B4B1A6842F4D7
:101A900000721A601A6842F480621A601A6842F48E
:101AA00080721A60032000F02FF80020FFF7C8FFB3
:101AB000FFF774FE002008BD003C0240034A116895
:101AC000034B1B780B441360704700BF9404002045
:101AD0003C000020014B1868704700BF94040020B0
:101AE00038B50446FFF7F6FF0546B4F1FF3F02D0D4
:101AF000044B1B781C44FFF7EDFF401BA042FAD3B8
:101B000038BD00BF3C000020074AD36823F4E063DF
:101B10001B041B0C000200F4E060184340F0BF609F
:101B200040F40030D060704700ED00E030B4174B57
:101B3000DB68C3F30223C3F10704042C28BF042489
:101B40001D1D062D18D9033B4FF0FF3505FA04F48F
:101B500021EA0401994005FA03F322EA0303194339
:101B600000280BDB0901C9B200F1604000F56140BB
:101B700080F8001330BC70470023E5E700F00F0049
:101B80000901C9B2024B1954F4E700BF00ED00E0AF
:101B900014ED00E0002807DB00F01F0240090123DC
:101BA0009340024A42F82030704700BF00E100E055
:101BB0000138B0F1807F0AD2064B5860064AF02106
:101BC00082F823100020986007221A6070470120D5
:101BD000704700BF10E000E000ED00E030B40568A1
:101BE0002C6824F480242C60046863608368402B94
:101BF00005D0036899600368DA6030BC70470368F9
:101C00009A600368D960F8E70268D3B2103B0B49C9
:101C1000A1FB03131B090A49C95CC165032B06D844
:101C200022F47F7222F003028265806D704722F4F5
:101C30007F7222F0030204328265F6E7ABAAAAAAF9
:101C400030630008836A826992B9012B0AD01BB104
:101C5000022B01D000207047C36A13F0807F2CD183
:101C600000207047C36AB3F1C07F28D000207047BE
:101C7000B2F5005F05D0022B29D9032B15D0002027
:101C80007047032B03D8DFE803F01C041C0A002074
:101C90007047C36A13F0807F15D100207047C36A74
:101CA000B3F1C07F11D000207047C36A13F0807F6A
:101CB00001D00120704700207047012070470120AB
:101CC00070470120704701207047012070470120B4
:101CD0007047000070B50446FFF7FCFE002C5BD097
:101CE0000546002384F83430022384F83530226816
:101CF000136823F00103136023681A6812F0010FC0
:101D00000AD0FFF7E7FE401B0528F5D920236365BD
:101D1000032084F8350070BD1A68204810406168BF
:101D2000A2680A43E1680A4321690A4361690A43D8
:101D3000A1690A43E1690A43216A0A430243616ACD
:101D400004291ED01A602668756925F00705636AA4
:101D50001D43042B07D1A36A1D43E36A1BB1204630
:101D6000FFF770FF90B975612046FFF74DFFE26DF8
:101D70003F239340836000206065012384F8353061
:101D8000C9E7E16A206B01430A43DBE7402363654F
:101D9000012084F83500BEE70120BCE73F8010F049
:101DA00038B5856D90F83440012C2CD0012480F892
:101DB000344090F83540E4B2012C04D0002380F880
:101DC0003430022038BD0446022084F8350000205B
:101DD00060652046FFF702FFE26D3F239340AB6052
:101DE0002268136843F016031360236C23B1226842
:101DF000136843F0080313602268136843F001037B
:101E000013600020DEE70220DCE790F83530DBB21B
:101E1000022B03D08023436501207047052380F8FF
:101E200035300268136823F0010313600020704707
:101E3000F0B583B0044600230193724B1D68724BCA
:101E4000A3FB0535AD0A876D3E68C26D082393403C
:101E5000334210D003681A6812F0040F0BD01A68CE
:101E600022F004021A60C26D08239340BB60436DE8
:101E700043F001034365E26D01239340334209D0EF
:101E80002268526912F0800F04D0BB60636D43F08A
:101E900002036365E26D04239340334209D0226854
:101EA000126812F0020F04D0BB60636D43F00403AC
:101EB0006365E26D10239340334224D02268126898
:101EC00012F0080F1FD0BB6023681A6812F4802F2D
:101ED0000DD01B6813F4002F04D1236C9BB1204656
:101EE000984710E0A36C73B1204698470BE01A683E
:101EF00012F4807F03D11A6822F008021A60236C62
:101F00000BB120469847E26D20239340334255D0D1
:101F10002268126812F0100F50D0BB6094F8353070
:101F2000DBB2052B0ED023681A6812F4802F33D051
:101F30001B6813F4002F2AD1636C002B3ED020467F
:101F400098473BE02268136823F016031360226869
:101F5000536923F080035361236CA3B12268136893
:101F600023F008031360E26D3F239340BB6000231E
:101F700084F83430012384F83530236D002B3FD0B2
:101F8000204698473CE0A36C002BE7D1EBE7E36BDE
:101F9000A3B12046984711E01A6812F4807F09D156
:101FA0001A6822F010021A60002384F834300123EA
:101FB00084F83530E36B0BB120469847636DFBB175
:101FC000636D13F0010F17D0052384F835302268B4
:101FD000136823F001031360019B01330193AB42AB
:101FE00004D823681B6813F0010FF5D1002384F88F
:101FF0003430012384F83530E36C0BB12046984728
:1020000003B0F0BD38000020B5814E1B00230F2B1C
:1020100000F2D780F0B583B039E0072200E000225B
:10202000AA403A430234674D45F82420664A1468B2
:10203000F24302EA04054F6817F4803F01D046EAF4
:102040000405614C2560646802EA04054F6817F4D2
:10205000003F01D046EA04055B4C6560A46802EAD3
:1020600004054F6817F4801F01D046EA0405564C5A
:10207000A560E46822404D6815F4001F01D046EACF
:102080000402514CE26001330F2B00F298800122D0
:102090009A400C6804EA0206B242F4D14C68651E0C
:1020A000012D03D9112C01D0122C12D185685F00AB
:1020B0000324BC4025EA0405CC68BC402C43846062
:1020C000456825EA02054C68C4F300129A402A4389
:1020D0004260C4685F000322BA40D24314408D6856
:1020E000BD402543C5604C68022C01D0122C13D191
:1020F000DD08083550F825E003F007044FEA840CAA
:102100000F2404FA0CF42EEA040E0C6904FA0CF401
:1021100044EA0E0440F82540046822404C6804F06C
:102120000304BC40224302604A6812F0805FAAD0D8
:1021300000220192254A546C44F480445464526C49
:1021400002F480420192019A9C08A51C1D4A52F893
:10215000257003F0030295000F22AA4027EA020728
:102160001B4A90423FF45BAF02F5806290421AD066
:1021700002F58062904218D002F58062904216D03B
:1021800002F58062904214D002F58062904212D033
:1021900002F58062904210D002F5806290423FF4D6
:1021A0003CAF08223CE701223AE7022238E703224B
:1021B00036E7042234E7052232E7062230E703B08F
:1021C000F0BD704700380140003C0140003802403B
:1021D0000000024012B909048161704781617047B3
:1021E000436931EA030301D08161704709048161C9
:1021F000704703685A6912F4806F11D06FF48062DF
:102200005A6100230363202280F83D2080F83E308D
:10221000026C42F00402026480F83C3001207047F6
:1022200000207047F8B506460C4617461D4622E0CA
:10223000FFF750FC069BC01AA84200D8DDB9002366
:102240003363202286F83D2086F83E30326C42F01F
:102250002002326486F83C3001201AE033685B6962
:1022600024EA03039BB2B3FA83F35B099F420FD1C5
:10227000B5F1FF3FDCD1C4F30743012BEED0336847
:102280009B6924EA03039BB2B3FA83F35B09EDE78E
:102290000020F8BDF8B504460D4616461F463CE042
:1022A0001A6842F400721A6023686FF480625A61FF
:1022B00000232363202284F83D2084F83E30226CE2
:1022C00042F00402226484F83C30012033E0FFF73E
:1022D00001FCC01BB04200D8FEB9002323632022BA
:1022E00084F83D2084F83E30226C42F020022264C3
:1022F00084F83C3001201EE023685B6925EA030373
:102300009BB2003318BF0123A3B123685A6912F4AA
:10231000806FC5D1B6F1FF3FD9D1C5F30743012B7B
:10232000EAD023689B6925EA03039BB2003318BFF8
:102330000123E9E70020F8BD70B504460D461646B6
:1023400023685B6913F0800F1CD12046FFF751FF13
:10235000D0B9B5F1FF3FF3D0FFF7BCFB801BA8421B
:1023600001D8002DECD100232363202284F83D20E6
:1023700084F83E30226C42F02002226484F83C3023
:10238000012000E0002070BD0120FCE72DE9F041B4
:1023900084B00446884616461F460B9D02681368A3
:1023A00043F48073136000950A9B00224FF00111E3
:1023B000FFF738FF60B123681B6813F4807F4FD0AC
:1023C0004FF4007323640323184604B0BDE8F08182
:1023D000226808F0FE0313612B460A9A2149204621
:1023E000FFF758FF08B10123EEE7002303932368AA
:1023F0005A6903929B690393039B2A460A992046D4
:10240000FFF79AFF034658B1236C042B01D0012338
:10241000DAE72268136843F4007313600123D3E7FB
:10242000012F0ED02368320A1A612A460A992046E3
:10243000FFF782FF034678B1236C042B05D00123FC
:10244000C2E72268F6B21661BEE72268136843F459
:10245000007313600123B7E72268F6B21661B3E791
:102460000323B1E7020001002DE9F04184B00446E6
:102470000E46174698460B9D0268136843F4806326
:1024800013600268136843F48073136000950A9B1D
:1024900000224FF00111FFF7C5FE68B123681B68E9
:1024A00013F4807F00F089804FF4007323640323CA
:1024B000184604B0BDE8F081F6B2236806F0FE02CB
:1024C0001A612B460A9A3F492046FFF7E3FE08B1FE
:1024D0000123EDE70023039323685A6903929B6964
:1024E0000393039B2A460A992046FFF725FF58B11C
:1024F000236C042B01D00123DAE72268136843F42C
:10250000007313600123D3E7B8F1010F0DD12368E5
:10251000FFB21F612A460A992046FFF70DFF20B33C
:10252000236C042B1AD00123C2E723683A0A1A61EC
:102530002A460A992046FFF7FFFE58B1236C042B68
:1025400001D00123B4E72268136843F400731360D9
:102550000123ADE72368FFB21F61DBE72268136840
:1025600043F4007313600123A2E72268136843F465
:102570008073136000950A9B00224FF001112046E2
:10258000FFF750FE48B123681B6813F4807F16D014
:102590004FF40073236403238AE7236846F001069F
:1025A0001E612B460A9A07492046FFF773FE034631
:1025B00000283FF47DAF01237AE7032378E7032364
:1025C00076E700BF0200010070B504460D461646CE
:1025D00023685B6913F0040F1CD12046FFF709FE46
:1025E000D0B9B5F1FF3FF3D0FFF774FA801BA842D2
:1025F00001D8002DECD100232363202284F83D2054
:1026000084F83E30226C42F02002226484F83C3090
:10261000012000E0002070BD0120FCE770B50546F8
:102620000C4616462B685A6912F0400F29D15A6998
:1026300012F0100F15D1FFF74DFA801BA04201D800
:10264000002CEFD100232B63202285F83D2085F854
:102650003E302A6C42F020022A6485F83C3001208A
:1026600070BD6FF010025A6100232B63202285F8A1
:102670003D2085F83E302A6C2A6485F83C300120E4
:10268000EEE70020ECE70000002800F0C880F8B575
:10269000044690F83D30002B75D0242384F83D305B
:1026A0002268136823F0010313602268136843F45F
:1026B000004313602268136823F40043136000F0A2
:1026C000F1FD6268584B9A4262D8584B98428CBFD1
:1026D00000230123002B40F0A480554BA3FB0023D3
:1026E0009B0C21684A6822F03F021A434A60256821
:1026F0002A6A22F03F0266684B498E424ED8013367
:1027000013432B622568E96921F44F4121F0FF0151
:102710006368454A93424BD801385B00B0FBF3F342
:102720000133C3F30B03042B38BF04230B43EB61CA
:1027300021680B6823F0C003E269206A0243134357
:102740000B6021688B6823F4034323F0FF032269A5
:10275000E068024313438B602168CB6823F0FF03DA
:102760006269A06902431343CB602268136843F097
:102770000103136000202064202384F83D3020638F
:1027800084F83E00F8BD80F83C30FFF723F884E77A
:10279000284B98428CBF002301239BE74FF496718E
:1027A00001FB03F32449A1FB03139B090133A7E7B2
:1027B000A268BAB9461E03EB4307B6FBF7F601362B
:1027C000C6F30B06B6FA86F6760936BBC2B90138EF
:1027D00003EB4303B0FBF3F30133C3F30B0242F407
:1027E0000043A3E7461E03EB830707EB8707B6FB0F
:1027F000F7F60136C6F30B06B6FA86F67609E4E775
:10280000013803EB830303EB8303B0FBF3F20132E4
:10281000C2F30B0242F4404388E7012386E701201C
:1028200070470120AEE700BFA08601007F841E0034
:1028300083DE1B43FF083D00D34D62102DE9F041BC
:1028400082B004460E4617469846FFF743F994F8BF
:102850003D30DBB2202B04D00223184602B0BDE885
:10286000F08105460090192301224C492046FFF7CC
:10287000D9FC002840F08B8094F83C30012B00F00C
:102880008880012384F83C3023681A6812F0010F15
:1028900003D11A6842F001021A602268136823F417
:1028A00000631360212384F83D30402384F83E30D8
:1028B00000232364089B6362BDF824306385638D25
:1028C0002385374BE36201950A9B009343463A46C2
:1028D00031462046FFF75AFD00285CD1238D002B9E
:1028E00034D02A460A992046FFF726FD10BB626ABB
:1028F000236812781A61616A4B1C6362238D013B65
:102900009BB22385628D013A92B26285226850693A
:1029100010F0040FE2D0002BE0D04B781361636A13
:1029200001336362238D013B2385638D013B9BB2A1
:102930006385D3E7236C042B01D001238DE7226844
:10294000136843F400731360012386E72A460A994B
:102950002046FFF739FE034658B1236C042B01D003
:1029600001237AE72268136843F40073136001239C
:1029700073E721680A6842F400720A60202284F832
:102980003D20002284F83E2084F83C2065E70223A5
:1029900063E7022361E701235FE700BF0200100045
:1029A0000000FFFF2DE9F04186B004460E461746B1
:1029B0009846FFF78FF894F83D30DBB2202B04D017
:1029C0000226304606B0BDE8F08105460090192386
:1029D00001229E492046FFF725FC002840F0348163
:1029E00094F83C30012B00F03781012384F83C300F
:1029F00023681A6812F0010F03D11A6842F001022D
:102A00001A602268136823F400631360222384F899
:102A10003D30402384F83E30002323640C9B6362E6
:102A2000BDF834306385638D2385894BE36201955E
:102A30000E9B009343463A4631462046FFF714FD6D
:102A40000646002840F00A81238D5BB90293236873
:102A50005A6902929A690292029A1A6842F40072C2
:102A60001A6072E0012B0AD0022B1AD000230593C2
:102A700023685A6905929B690593059B65E0226866
:102A8000136823F4806313600023039323685A6957
:102A900003929A690392039A1A6842F400721A60C8
:102AA00053E02268136823F480631360226813687C
:102AB00043F4006313600023049323685A6904926B
:102AC0009B690493049B40E02A460E992046FFF739
:102AD000A5FD002840F0C48023681A69636A1A7053
:102AE000636A01336362238D013B2385638D013B60
:102AF0009BB2638529E000950E9B00225549204634
:102B0000FFF790FB002840F0AD802268136843F483
:102B10000073136023681A69636A1A70626A531C2F
:102B20006362238D013B2385638D013B9BB26385EB
:102B300023681B695370636A01336362238D013B11
:102B40002385638D013B9BB26385238D002B72D05F
:102B5000032B49D8012BB7D0022BCCD000950E9B6C
:102B600000223C492046FFF75DFB00287CD122680B
:102B7000136823F48063136023681A69636A1A7008
:102B8000636A01336362238D013B2385638D013BBF
:102B90009BB2638500950E9B00222E492046FFF7CD
:102BA00041FB002862D12268136843F4007313606C
:102BB00023681A69636A1A70626A531C6362238D00
:102BC000013B2385638D013B9BB2638523681B69B1
:102BD0005370636A01336362238D013B2385638DE8
:102BE000013B9BB26385B0E72A460E992046FFF76A
:102BF00015FD00283CD123681A69636A1A70626A5D
:102C0000531C6362238D013B2385638D013B9BB283
:102C100063852368596911F0040F96D01B695370BE
:102C2000636A01336362238D013B2385638D013B1E
:102C30009BB2638589E7202384F83D30002384F824
:102C40003E3084F83C30BCE60226BAE602001000B2
:102C50000000FFFF040001000226B2E60126B0E6F4
:102C60000126AEE60126ACE60126AAE60126A8E684
:102C70000126A6E6002800F0E48170B582B0044683
:102C8000036813F0010F3BD0A74B9B6803F00C03C4
:102C9000042B2CD0A44B9B6803F00C03082B21D0F1
:102CA0006368B3F5803F4FD0B3F5A02F52D09E4B51
:102CB0001A6822F480321A601A6822F480221A609C
:102CC0006368002B50D0FEF705FF0546964B1B6846
:102CD00013F4003F14D1FEF7FDFE401B6428F5D924
:102CE0000320B3E1904B5B6813F4800FD8D08E4B78
:102CF0001B6813F4003F03D06368002B00F0A3812E
:102D0000236813F0020F55D0874B9B6813F00C0F0C
:102D10003ED0854B9B6803F00C03082B33D0E3684F
:102D2000002B68D0814B01221A60FEF7D3FE0546C6
:102D30007D4B1B6813F0020F54D1FEF7CBFE401BF6
:102D40000228F5D9032081E1774A136843F48033E0
:102D50001360B5E7744B1A6842F480221A601A684F
:102D600042F480321A60ABE7FEF7B4FE05466E4BC4
:102D70001B6813F4003FC3D0FEF7ACFE401B642871
:102D8000F5D9032062E1684B5B6813F4800FC6D16C
:102D9000654B1B6813F0020F04D0E368012B01D0D0
:102DA000012053E1604A136823F0F803216943EAE4
:102DB000C1031360236813F0080F40D0636963B345
:102DC0005B4B01221A60FEF785FE0546564B5B6F92
:102DD00013F0020F33D1FEF77DFE401B0228F5D918
:102DE000032033E1504A136823F0F803216943EAD2
:102DF000C1031360DEE74D4B00221A60FEF76AFE46
:102E00000546494B1B6813F0020FD3D0FEF762FE54
:102E1000401B0228F5D9032018E1454B00221A6017
:102E2000FEF758FE0546404B5B6F13F0020F06D0CD
:102E3000FEF750FE401B0228F5D9032006E1236867
:102E400013F0040F79D0384B1B6C13F0805F33D133
:102E500000230193344B1A6C42F080521A641B6CAD
:102E600003F080530193019B0125324B1B6813F43F
:102E7000807F23D0A368012B34D0052B38D02A4B78
:102E80001A6F22F001021A671A6F22F004021A6701
:102E9000A368002B36D0FEF71DFE0646224B1B6FA3
:102EA00013F0020F48D1FEF715FE801B41F2883364
:102EB0009842F3D90320C9E00025D6E71D4A1368DC
:102EC00043F480731360FEF705FE0646194B1B683A
:102ED00013F4807FCED1FEF7FDFD801B0228F5D9CB
:102EE0000320B3E0104A136F43F001031367CFE7E9
:102EF0000D4B1A6F42F004021A671A6F42F001027A
:102F00001A67C5E7FEF7E6FD0646074B1B6F13F091
:102F1000020F11D0FEF7DEFD801B41F2883398428C
:102F2000F3D9032092E000BF00380240000047427E
:102F3000800E474200700040EDB9A369002B00F0FD
:102F40008480454A926802F00C02082A51D0022B74
:102F500017D0424B00221A60FEF7BCFD04463E4BE0
:102F60001B6813F0007F42D0FEF7B4FD001B02285F
:102F7000F5D903206AE0384A136C23F080531364B8
:102F8000DBE7364B00221A60FEF7A4FD0546324B04
:102F90001B6813F0007F06D0FEF79CFD401B022843
:102FA000F5D9032052E0E369226A1343626A43EAD7
:102FB0008213A26A5208013A43EA0243E26A43EAF0
:102FC0000263254A5360254B01221A60FEF782FDF9
:102FD0000446214B1B6813F0007F06D1FEF77AFDF3
:102FE000001B0228F5D9032030E000202EE000204D
:102FF0002CE0012B2CD0184B5B6803F48001E269B4
:10300000914201D0012021E003F03F02216A8A426F
:1030100001D001201AE0616A47F6C0721A408A4264
:1030200001D0012012E003F44032A16A8A4201D0AB
:1030300001200BE003F07063E26A93420AD00120A2
:1030400004E001207047012000E0002002B070BDC4
:103050000120FBE70020F9E700380240600047420A
:10306000324B9B6803F00C03042B5CD0082B01D07F
:103070002F4870472DE9F04B2C4B5A6802F03F0265
:103080005B6813F4800F2BD0284B5B68C3F3881365
:103090001E4600275C010025E41A65EB0705A9011F
:1030A00041EA9461A001001B61EB0501CB0043EAFA
:1030B0005073C400A01943EB07014B0243EAD053FD
:1030C0004402204619460023FDF750FD174B5B686C
:1030D000C3F3014301335B00B0FBF3F0BDE8F08BB9
:1030E000124B5B68C3F388131E4600275C01002562
:1030F000E41A65EB0705A90141EA9461A001001BF0
:1031000061EB0501CB0043EA5073C400A01943EB07
:1031100007018B0243EA905384022046194600239C
:10312000FDF724FDD2E70348704700BF0038024096
:103130000024F40000127A00002800F09E8070B590
:103140000446504B1B6803F00F038B4209D2CBB2ED
:103150004C4A1370136803F00F038B4201D0012017
:1031600070BD236813F0020F17D013F0040F04D0C2
:10317000454A936843F4E0539360236813F0080FC3
:1031800004D0414A936843F4604393603E4A936895
:1031900023F0F003A068034393600D46236813F007
:1031A000010F32D06368012B21D09A1E012A25D944
:1031B000354A126812F0020F61D033498A6822F052
:1031C000030213438B60FEF785FC06462E4B9B687B
:1031D00003F00C036268B3EB820F16D0FEF77AFCA3
:1031E000801B41F288339842F0D90320B8E7264A81
:1031F000126812F4003FE0D10120B1E7224A1268C0
:1032000012F0007FD9D10120AAE71E4B1B6803F002
:103210000F03AB4209D9EAB21A4B1A701B6803F0CC
:103220000F03AB4201D001209AE7236813F0040F8B
:1032300006D0154A936823F4E053E1680B4393608A
:10324000236813F0080F07D00F4A936823F46043F4
:10325000216943EAC1039360FFF702FF0A4B9B68B1
:10326000C3F30313094AD35CD840094B1860094BD8
:103270001868FEF7E5FB002072E701207047012087
:103280006EE700BF003C02400038024018630008AF
:103290003800002040000020014B1868704700BF34
:1032A0003800002008B5FFF7F7FF044B9B68C3F315
:1032B0008223034AD35CD84008BD00BF00380240D7
:1032C0002863000808B5FFF7E7FF044B9B68C3F3CA
:1032D0004233034AD35CD84008BD00BF00380240E7
:1032E00028630008F8B505460F4616461C462B68AD
:1032F0009B6837EA03030CBF01230023B34237D096
:10330000B4F1FF3FF3D0FEF7E5FB069BC01AA042E5
:1033100001D2002CEBD12A68536823F0E0035360FC
:103320006B68B3F5827F0BD0AB6AB3F5005F14D046
:10333000012385F85130002385F85030032018E030
:10334000AB68B3F5004F02D0B3F5806FECD12A68BB
:10335000136823F040031360E6E72A68136823F438
:10336000005313602A68136843F400531360DFE7C7
:103370000020F8BD30B585B0164C2468164DA5FB6D
:103380000434640D4FF47A7505FB04F40394446827
:10339000B4F5827F0BD0039BC3B1039B013B039326
:1033A00003689B6813F0800FF5D100230FE00B46F4
:1033B0000446009200228021FFF794FF034630B1BB
:1033C000636D43F020036365032300E00023184688
:1033D00005B030BD38000020819F5E1610B582B068
:1033E00004464068B0F5827F16D06068B0F5827FF1
:1033F0002ED1A368B3F5806F1BD000920B4600223C
:1034000080212046FFF76EFF034650B3636D43F003
:1034100020036365032324E0A368B3F5004F02D0C3
:10342000B3F5806FE1D12068036823F040030360A7
:10343000DBE700920B46002201212046FFF752FFF6
:10344000034670B1636D43F020036365032308E016
:1034500000920B46002201212046FFF743FF03465E
:1034600010B9184602B010BD636D43F020036365C8
:103470000323F6E700283BD010B5044600238362FF
:1034800090F85130002B2ED0022384F8513022685E
:10349000136823F0400313606368A2681343E26873
:1034A00013432269134362691343A26902F4007251
:1034B0001343E2691343226A1343A16A22680B4350
:1034C0001360638B03F00403616A22680B4353604B
:1034D0002268D36923F40063D3610020606501236F
:1034E00084F8513010BD80F85030FEF7ADF9CBE7CD
:1034F0000120704738B590F85040012C00F09580BD
:103500000446012084F8500094F85100C0B2656868
:1035100001280FD0B5F5827F05D00223002284F860
:103520005020184638BDA568002D76D1042801D05A
:103530000223F3E7002972D0002A72D0002B72D048
:1035400094F85100C0B2042802D0052084F851003C
:10355000002060652163A386E386A263A387E387D7
:103560002064606494F85130DBB2042B1BD0E36C10
:103570002F4A1A64E36C2F4ADA63E36C2E4ADA644A
:10358000E36C00221A652168E38FA26B0C31E06CBA
:10359000FEF706FC70B1636D43F010036365012311
:1035A00084F85130BAE7E36C244A1A64E36C244A85
:1035B000DA63E2E72268536843F001035360A26CC8
:1035C00000231364A26CD363A26CD364A26C136552
:1035D0002268E38E0C32216BA06CFEF7E1FB034600
:1035E00038B1636D43F010036365012384F85130F3
:1035F00094E72268116811F0400F03D1116841F07F
:103600004001116021684A6842F020024A60216846
:103610004A6842F002024A6080E702237EE7012303
:103620007CE701237AE7012378E7022379E700BFEB
:1036300057360008F3360008633600084B3600089A
:103640008536000870477047704708B5806BFFF7F4
:10365000FBFF08BD704708B5806BFFF7FBFF08BD97
:10366000704708B5806B0268536823F0030353600A
:10367000436D43F010034365012380F85130FFF799
:10368000EFFF08BD38B50546846BFEF723FA2B68BB
:103690001B6813F4807F1ED121684B6823F0200340
:1036A0004B60A3681BB96368B3F5827F17D02268AB
:1036B000536823F001035360024664212046FFF75C
:1036C0008DFE08B1202363650023E387012384F87E
:1036D0005130636D4BB92046FFF7B4FF38BD226807
:1036E000536823F003035360E6E72046FFF7B8FF73
:1036F000F4E738B50546846BFEF7ECF92B681B68D8
:1037000013F4807F1BD12268536823F02003536099
:10371000024664212046FFF72DFE18B1636D43F089
:10372000200363652268536823F00303536000237A
:10373000E386E387012384F85130636D1BB920468B
:10374000FFF781FF38BD2046FFF78AFFFAE70268DE
:10375000D36823F49073D3600268536923F00103A4
:103760005361202380F83A30704790F83930DBB24B
:10377000212B2AD18368B3F5805F16D0036A5A1CC7
:1037800002621A7803685A60C38C013B9BB2C384FF
:10379000EBB90268D36823F08003D3600268D36872
:1037A00043F04003D36000207047036A1B8802681F
:1037B000C3F30803536003691BB9036A023303624E
:1037C000E2E7036A01330362DEE70220704700206C
:1037D000704700002DE9F04B04460268136923F49A
:1037E0004053C1680B431361836802691343426904
:1037F0001343C2691A430168CB6823F4164323F0CC
:103800000C031343CB600268536923F4407381694E
:103810000B435361C369B3F5004F3BD00368714A52
:10382000934200F0AB8002F58062934200F0A680E4
:10383000FFF738FD4FF00009061849EB090716EBB2
:10384000000B47EB090C4FEACC0343EA5B734FEAEA
:10385000CB0293469C4663689A009B0F10EB0B00CB
:1038600049EB0C01FDF782F95F4DA5FB00325109D0
:10387000642202FB110213013233A5FB03235B090F
:1038800003F0F00202EB011203F00F03216813446E
:103890008B60A4E00368534A934239D002F58062FA
:1038A000934235D0FFF7FEFC83464FF0000C06181C
:1038B0004CEB0C0716EB000847EB0C094FEAC90369
:1038C00043EA58734FEAC80290469946626800215D
:1038D000921841EB01031BEB08004CEB0901FDF7CB
:1038E00045F9414DA5FB00325109642202FB11024A
:1038F000D3003233A5FB03235B095A0002F4F872AC
:1039000002EB011203F00703216813448B6066E0A9
:10391000FFF7D8FC80464FF00009061849EB09076D
:1039200016EB000B47EB090C4FEACC0343EA5B7341
:103930004FEACB0293469C4662680021921841EB05
:10394000010318EB0B0049EB0C01FDF70FF9264DB5
:10395000A5FB00325109642202FB1102D30032336D
:10396000A5FB03235B095A0002F4F87202EB011273
:1039700003F00703216813448B6030E0FFF7A2FCDB
:103980004FF00009061849EB090716EB000B47EB4F
:10399000090C4FEACC0343EA5B734FEACB02934630
:1039A0009C4663689A009B0F10EB0B0049EB0C01DF
:1039B000FDF7DCF80C4DA5FB00325109642202FB37
:1039C000110213013233A5FB03235B0903F0F0025C
:1039D00002EB011203F00F03216813448B60BDE872
:1039E000F08B00BF001001401F85EB5158B310B59C
:1039F000044690F839300BB3242384F83930226818
:103A0000D36823F40053D3602046FFF7E3FE226817
:103A1000136923F4904313612268536923F02A0346
:103A200053612268D36843F40053D3600020E063FD
:103A3000202384F8393084F83A3010BD80F83830CB
:103A4000FDF776FFD8E70120704790F83930DBB2F8
:103A5000202B16D1B9B1C2B190F83830012B16D055
:103A600001628284C2840023C363212280F839204A
:103A700080F838300168CA6842F08002CA6018468F
:103A800070470220704701207047012070470220D4
:103A90007047704708B50168CB6823F04003CB60DE
:103AA000202380F83930FFF7F4FF002008BD08B567
:103AB00090F83A30DBB2222B45D18368B3F5805FB2
:103AC0000ED0036903BB03685A68836A591C81627C
:103AD0001A70C38D013B9BB2C385F3B1002033E064
:103AE000826A036943B903685B68C3F30803138000
:103AF000836A02338362ECE703685B68DBB213809E
:103B0000836A01338362E4E703685B68826A511C5D
:103B1000816203F07F031370DBE70268D36823F050
:103B20002003D3600268D36823F48073D3600268F3
:103B3000536923F001035361202380F83A30FDF7E5
:103B40001FFD002000E0022008BD704710B50446AC
:103B500002681368D168526913F00F0005D113F0A1
:103B6000200F02D011F0200F56D100286AD012F099
:103B7000010202D111F4907F64D013F0010F06D03E
:103B800011F4807F03D0E06B40F00100E06313F09C
:103B9000040F04D01AB1E06B40F00200E06313F0B0
:103BA000020F04D01AB1E06B40F00400E06313F0A0
:103BB000080F07D011F0200F00D11AB1E26B42F0CC
:103BC0000802E263E26B002A48D013F0200F02D013
:103BD00011F0200F24D123685B6903F04003E26BEE
:103BE00012F0080F00D13BB32046FFF7B0FD236869
:103BF0005A6912F0400F1BD05A6922F040025A61F4
:103C0000636B8BB11A4A1A65606BFEF7FEF828B336
:103C1000606B036D984721E02046FFF748FF1DE0E9
:103C20002046FFF744FFD6E72046FFF78EFF15E05A
:103C30002046FFF78AFF11E02046FFF786FF0023AA
:103C4000E3630BE013F0800F02D011F0800F06D178
:103C500013F0400F02D011F0400F04D110BD2046E8
:103C6000FFF783FDFAE72046FFF714FFF6E700BFF2
:103C7000753C000808B5806B0023C385C384FFF73B
:103C800064FF08BDDFF834D0002103E00C4B5B5823
:103C9000435004310B480C4B42189A42F6D30B4A5E
:103CA00002E0002342F8043B094B9A42F9D3FDF7A6
:103CB000B9FE00F0B5FAFDF741FD704700000220A3
:103CC000606600080000002014020020140200209A
:103CD0009C040020FEE7000000F002B80000000095
:103CE00051EC110B43422DE9F047034321F0004E04
:103CF0006B4F4EEAD373BB4255EC104B1ED8634258
:103D0000234325F0004A4AEAD373BB42A94615D89B
:103D100001F1404303F5801303433DD08E1706F0B5
:103D200002065AEA040346EAD5760FD1022E52D093
:103D3000032E3CD148A1D1E9000103E022462B46E5
:103D4000FCF74CFA41EC100BBDE8F0875EEA00038B
:103D500026D0BE452FD0BA4522D0AAEB0E0E4FEA90
:103D60002E5EBEF13C0F3ADC00293CDA1EF13C0F1E
:103D700039DA00200021012E51D0022E42D0002E2F
:103D8000E0D037A3D3E90023FCF726FA36A3D3E922
:103D90000023FCF721FAD5E7BDE8F04700F084B82E
:103DA000B9F1000F13DB32A1D1E90001CAE710EE2F
:103DB000100A2946C6E7F24535D0022E0BD0032E55
:103DC000B8D0012E4FF0000037D00021BAE72AA169
:103DD000D1E90001B6E724A1D1E90001B2E724A1AD
:103DE000D1E90001C7E702460B4620462946FCF709
:103DF000D5FC41EC100B00F003FA00F055F851EC43
:103E0000100BB8E716A3D3E90023FCF7E5F9024647
:103E10000B4615A1D1E90001FCF7DEF992E701F1AB
:103E2000004319468EE7022E12D0032E0CD0012E2D
:103E300006D013A1D1E9000184E74FF0004181E7EA
:103E400011A1D1E900017DE711A1D1E9000179E7D4
:103E500011A1D1E9000175E7182D4454FB2109C0D7
:103E6000075C143326A6A13C182D4454FB210940BD
:103E7000182D4454FB21F93F182D4454FB21F9BF60
:103E8000182D4454FB21E93F182D4454FB21E9BF70
:103E9000D221337F7CD902C0D221337F7CD902402A
:103EA0000000F07F000000002DE9F84F55EC104BAA
:103EB000C94B25F000469E42AA4610DDC74B9E42E4
:103EC00000F3B58000F0B080BAF1000F40F3F98044
:103ED000A5A1D1E9000141EC100BBDE8F88FC04B62
:103EE0009E4200F3C380A3F1DE739E4240F3A9809B
:103EF0004FF0FF3B22462B4620462946FCF724FB89
:103F000002460B4680468946FCF71EFB98A3D3E980
:103F1000002306460F46FCF717FB97A3D3E90023BF
:103F2000FCF75CF932463B46FCF70EFB94A3D3E961
:103F30000023FCF753F932463B46FCF705FB92A3FE
:103F4000D3E90023FCF74AF932463B46FCF7FCFA7A
:103F50008FA3D3E90023FCF741F932463B46FCF737
:103F6000F3FA8DA3D3E90023FCF738F942464B4618
:103F7000FCF7EAFA8AA3D3E9002380468946304653
:103F80003946FCF7E1FA88A3D3E90023FCF724F9CA
:103F900032463B46FCF7D8FA85A3D3E90023FCF769
:103FA0001BF932463B46FCF7CFFA83A3D3E9002343
:103FB000FCF712F932463B46FCF7C6FA80A3D3E978
:103FC0000023FCF709F932463B46FCF7BDFA0246EE
:103FD0000B4640464946FCF701F922462B46FCF7C2
:103FE000B3FABBF1FF3F02460B466ED07D4B7E4ECF
:103FF0004FEACB0B5B44D3E90023FCF7EDF82246F4
:104000002B46FCF7E9F8B34402460B46DBE9000116
:10401000FCF7E2F8BAF1000F0FDA01F1004319469C
:1040200041EC100BBDE8F88F002C3FF44DAF224659
:104030002B4620462946FCF7D1F841EC100BBDE891
:10404000F88F61A3D3E9002310EE100A2946FCF78C
:10405000C5F80022654BFCF707FD00283FF448AF88
:104060002046294641EC100BBDE8F88F00F0C8F857
:104070005F4B9E4255EC104B2FDCA3F550239E4224
:1040800058DC10EE102A10EE100A2B462946FCF7D9
:10409000A5F80022554BFCF79FF8002206460F4674
:1040A0004FF0804320462946FCF798F802460B461D
:1040B00030463946FCF772FB4FF0000B04460D46C4
:1040C00018E743A1D1E90001B7E720462946FCF7EC
:1040D00083F841EC100BBDE8F88F464B9E421DDC87
:1040E00010EE100A0022444B2946FCF775F8002216
:1040F00006460F46404B20462946FCF725FA00228B
:104100003A4BFCF76BF802460B4630463946FCF753
:1041100045FB4FF0020B04460D46EBE62B4610EE36
:10412000102A00203549FCF739FB4FF0030B0446F9
:104130000D46DFE610EE100A00222C4B2946FCF754
:104140004BF8002206460F46284B20462946FCF72E
:1041500045F802460B4630463946FCF71FFB4FF048
:10416000010B04460D46C5E6182D4454FB21F93FCA
:1041700011DA22E33AAD903FEB0D76244B7BA93F59
:10418000513DD0A0660DB13F6E204CC5CD45B73F27
:10419000FF8300922449C23F0D5555555555D53FD3
:1041A0002F6C6A2C44B4A2BF9AFDDE522DDEAD3FC7
:1041B0006D9A74AFF2B0B33F711623FEC671BC3F67
:1041C000C4EB98999999C93F9C7500883CE4377E67
:1041D000182D4454FB21F9BFFFFF0F440000F07F6E
:1041E000FFFFDB3FD0630008B06300080000F03F32
:1041F000FFFFF23FFF7F03400000F83F0000F0BFE9
:1042000051EC100B10EE102A21F0004343EC102B60
:10421000704700BF014B1868704700BF4400002082
:1042200070B50D4E0D4CA41BA4100025A54209D15C
:104230000B4E0C4C02F064F8A41BA4100025A54200
:1042400005D170BD56F8253098470135EEE756F890
:10425000253098470135F2E758660008586600088F
:10426000586600085C66000802440346934200D189
:10427000704703F8011BF9E72DE9FF4755EC104B98
:104280000D9FDDF830A0002D0E4691461946B8BFAF
:1042900022462B4627F02007BBBF05F100431D46F1
:1042A00000232D23B8BF1446462F0B7004D0452F92
:1042B00000D10136022100E0032103AB019302ABE0
:1042C00000933246534645EC104B00F0E5FC472F77
:1042D000804602D119F0010F26D0462F08EB0609BF
:1042E00011D198F80030302B0AD10022002320464B
:1042F0002946FCF791FB18B9C6F10106CAF800601F
:10430000DAF8003099440022002320462946FCF7C1
:1043100083FB38B93022039B4B4505D2591C0391CE
:104320001A70F8E7CDF80C90039B0E9AA3EB0803E4
:104330004046136004B0BDE8F087F7B50029044695
:10434000BABF49422D232B23092904F8022B4370BD
:1043500020DD0DF107031F460A2691FBF6F506FB4B
:1043600015113031092D03F8011C03F1FF322946E4
:1043700009DC3031023B02F8011CBB42224604D367
:10438000101A03B0F0BD1346E7E713F8012B04F849
:10439000012BF2E7302319448370021DC170EFE74F
:1043A0002DE9F04F8DB00C46DDF8588016461F46BB
:1043B000054601F029FA036804931846FCF760FDEE
:1043C00000230A93D8F800300590073323F0070341
:1043D00003F1080294F818A0D4F800B0C8F800203F
:1043E000D3E90023C4E91223D4E9128929F0004358
:1043F0000793CDF818804FF0FF32A74BDDE9060197
:10440000FCF796FD70BB4FF0FF32A34BDDE90601D0
:10441000FCF716FB30BB0022002340464946FCF760
:1044200005FB10B12D2384F843309C4A9C4BBAF114
:10443000470F8CBF9046984603232BF0040223615C
:1044400022604FF00009009733460BAA2146284608
:1044500000F0E6F9013040F08D804FF0FF300DB0F4
:10446000BDE8F08F42464B4640464946FCF760FDAA
:1044700010B18C4A8C4BDAE761684B1C4BF48062BC
:104480000AA83ED1062363600023CDE9020309ABED
:10449000009349EC108B0DF123032260CDF804A0AA
:1044A00061682846FFF7E8FE0AF0DF03472B8046E5
:1044B00009D1099BD81C02DB6268934247DDAAF14F
:1044C000020A5FFA8AFABAF1650F099924D801390C
:1044D000524604F150000991FFF72FFF0A9A131872
:1044E000012A8146236102DC2268D10701D501330C
:1044F00023619DF82330002BA5D02D2384F8433071
:10450000A1E7BAF1670F00F07781BAF1470FBBD18D
:104510000029B9D10123B6E7BAF1660F19D10029F4
:1045200063680CDD216113B92268D20702D501331B
:104530000B442361099BA3654FF00009D9E713B928
:104540002268D00701D50233F3E70123F1E74FF0EA
:10455000670ADDE90932934205DB22682361D1074E
:10456000E8D50133E5E7002BD4BFC3F102030123F3
:104570001344DEE723685A0507D4236942463146CF
:104580002846B84701302BD167E7BAF1650F40F2F2
:10459000DC8000220023D4E91201FCF73DFA002858
:1045A00033D00123414A31462846B84701303FF411
:1045B00054AFDDE909239A4202DB2368D8070FD5FF
:1045C000DDE9042331462846B84701303FF445AFC2
:1045D0004FF0000804F11A090A9B013B434509DC2E
:1045E00023689B0700F10381E0680B9B9842B8BFEA
:1045F000184634E701234A4631462846B847013079
:104600003FF42BAF08F10108E6E7099B002B2BDCF8
:104610000123264A31462846B84701303FF41DAFF2
:10462000099B23B90A9B13B92368D907D8D5DDE9BB
:10463000042331462846B84701303FF40EAF4FF00F
:10464000000904F11A0A099B5B424B4501DC0A9BF5
:1046500094E70123524631462846B84701303FF4DB
:10466000FCAE09F10109EEE70A9AA36D9A42A8BFD0
:104670001A46002A914607DD13463146424628462F
:10468000B84701303FF4E9AE04F11A034FF0000BD4
:1046900029EAE979069315E0FFFFEF7FF46300084C
:1046A000F0630008FC630008F86300080064000879
:1046B0000123069A31462846B84701303FF4CDAE73
:1046C0000BF1010BD4F858A0AAEB09035B45EFDC12
:1046D000DDE909239A42D04415DB2368DA0712D4B6
:1046E0000A9B0999A3EB0A02A3EB010A9245A8BF12
:1046F0009246BAF1000F0EDC4FF000082AEAEA7A7F
:1047000004F11A0919E0DDE9042331462846B847C7
:104710000130E5D1A1E65346424631462846B84726
:104720000130E9D199E601234A4631462846B84787
:1047300001303FF492AE08F10108DDE909239B1A2C
:10474000A3EB0A034345EEDC4AE70A9A012A01DC9F
:10475000DB073AD50123424631462846B8470130A7
:104760003FF47BAEDDE9042331462846B8470130EB
:1047700008F101083FF471AE0A9B002203F1FF3AF1
:10478000D4E912010023FCF747F9C8B95346424661
:1047900031462846B84701300ED15EE60123524625
:1047A00031462846B84701303FF457AE08F10108BA
:1047B0000A9B013B4345F1DC4B4604F15002DEE627
:1047C0004FF0000804F11A0AF2E70123DFE70123A2
:1047D0004A4631462846B84701303FF43EAE08F11C
:1047E0000108E3680B9A9B1A4345F0DCFCE64FF0A6
:1047F000000804F11909F4E700293FF48BAE002307
:10480000CDE9020309AB009349EC108B2260CDF88F
:1048100004A00DF123032846FFF72EFD804648E64D
:104820002DE9F04791461F468A680B69DDF8208024
:104830009342B8BF1346C9F8003091F843200646AA
:104840000C4612B10133C9F800302368990642BF03
:10485000D9F800300233C9F80030256815F0060594
:1048600007D104F1190AE368D9F800209B1AAB427A
:1048700028DC94F843302268003318BF01239206E5
:104880002DD404F1430239463046C047013020D0D0
:104890002368E568D9F8002003F00603042B08BF5D
:1048A000AD1AA36822690CBF25EAE575002593427D
:1048B000C4BF9B1AED184FF000091A344D451AD1A8
:1048C000002008E00123524639463046C0470130F7
:1048D00003D14FF0FF30BDE8F0870135C3E7E118A1
:1048E0005A1C302081F84300224494F8451082F885
:1048F00043100233C5E70123224639463046C047FC
:104900000130E6D009F10109D8E700002DE9F043B4
:1049100001F1430C0C46097E85B06E291746064608
:1049200098460C9A00F0B38022D8632936D00AD872
:10493000002900F0B980582900F0838004F1420575
:1049400084F8421032E0642901D06929F6D1206848
:104950001368050603F104012AD51B681160002BBA
:1049600003DA2D225B4284F843206F480A2239E0A3
:10497000732900F09D8008D86F2920D07029DDD1DF
:10498000236843F02003236003E0752917D07829BA
:10499000D4D1782384F84530644855E01368191D54
:1049A0001B68116004F1420584F8423001238CE059
:1049B0001B68116010F0400F18BF1BB2CFE71368DF
:1049C0002568181D1060280601D51B6802E06806DE
:1049D000FBD51B8854486F2914BF0A2208220021E6
:1049E00084F843106568A560002DC0F295802168A9
:1049F00021F004012160002B3DD1002D40F08E807C
:104A00006546082A0BD12368DB0708D5236962684D
:104A10009A42DEBF302305F8013C05F1FF35ACEBCF
:104A200005032361CDF800803B4603AA21463046AA
:104A3000FFF7F6FE01304DD14FF0FF3005B0BDE875
:104A4000F083394884F84510136821681D1D1B68E0
:104A500015600A060BD5CA0744BF41F0200121604A
:104A60001BB9226822F0200222601022B7E74D060F
:104A700048BF9BB2EFE76546B3FBF2F102FB11338F
:104A8000C35C05F8013D0B460029F5D1B9E7136871
:104A900025686169181D106028061B6801D519601A
:104AA00002E06A06FBD51980002323616546B9E759
:104AB0001368191D11601D68626800212846FCF703
:104AC000E7F908B1401B606063682361002384F844
:104AD0004330A7E723692A4639463046C0470130AC
:104AE000AAD023689B0713D4E068039B9842B8BF01
:104AF0001846A3E701234A4639463046C0470130ED
:104B00009AD00135E368039A9B1AAB42F2DCEBE7DB
:104B1000002504F11909F5E7002BACD1037884F8DE
:104B2000423004F142056CE7026400081364000897
:104B30000EB400B59CB01DAB029006906FF0004122
:104B4000094807910491094953F8042B059100681D
:104B5000019302A901F064FA029B00221A701CB0B2
:104B60005DF804EB03B07047440000200802FFFF2B
:104B7000034611F8012B03F8012B002AF9D17047E5
:104B80002DE9F74F03690C69A3428046C0F2828089
:104B9000013C01F114074FEA840C00F1140657F8A8
:104BA000245056F8240006EB0C03013507EB0C09E2
:104BB0000193B0FBF5F595B34FF0000A3846B646C1
:104BC000D34650F8042B93B205FB03A34FEA134AD4
:104BD0009BB2ABEB0303120CDEF800B005FB02A2A4
:104BE00013FA8BF34FEA124A1FFA82FBDEF8002019
:104BF000CBEB124202EB23429BB243EA02438145D4
:104C00004FEA224B4EF8043BDBD256F80C3033B956
:104C1000019B043B9E421A4630D3C8F810404046E0
:104C200001F028F8002825DB013530464FF0000C54
:104C300057F8042BD0F800E093B2ACEB0303120C4E
:104C400013FA8EF3C2EB1E4202EB23429BB243EAFD
:104C50000243B9454FEA224C40F8043BE8D256F8EB
:104C6000242006EB84032AB9043B9E421A460BD348
:104C7000C8F81040284603B0BDE8F08F1268043B26
:104C8000002ACAD1013CC5E71268043B002AEFD1D3
:104C9000013CEAE70020EEE72DE9F04F57EC106BFE
:104CA00097B0456A069104460B921293DDF8808016
:104CB000CDE900673DB9102000F0B4FD6062C0E9A5
:104CC00001550560C560636A196851B15A684A6048
:104CD000012393408B60204600F0EBFD636A0022C5
:104CE0001A603B1EBBBF23F0004301930023012247
:104CF000ACBFC8F80030C8F80020AF4BDDF8048026
:104D000033EA080314D1129A42F20F731360009B26
:104D100023B9C8F31300002800F04285219BDFF877
:104D2000ACB2002B00F044850BF1030300F03EBD54
:104D3000DDE900670022002330463946FBF76CFEB0
:104D4000814668B1129A01231360219B002B00F069
:104D500024859A4B219A03F1FF3B136000F028BD94
:104D600014AA15A947EC106B204600F0FAFFC8F30F
:104D70000A550490002D7CD0C7F3130343F07F5BEA
:104D8000B2464BF4401BA5F2FF35CDF84C90002203
:104D90008B4B50465946FBF71FFA81A3D3E90023FA
:104DA000FBF7D2FB80A3D3E90023FBF717FA0646F3
:104DB00028460F46FBF75EFB7DA3D3E90023FBF7F4
:104DC000C3FB02460B4630463946FBF707FA064658
:104DD0000F46FBF753FE0022824600233046394639
:104DE000FBF724FE48B15046FBF744FB32463B46F6
:104DF000FBF712FE08B90AF1FF3ABAF1160F59D8BB
:104E0000704901EBCA01DDE90023D1E90001FBF79C
:104E10002BFE002850D00AF1FF3A00230F93149B79
:104E20005D1BB5F1010849BFC5F1010300230593DE
:104E30004FF0000858BF0593BAF1000F3EDB002386
:104E4000D044CDF838A00793069B092B00F2908040
:104E5000052BC4BF043B0693069BA3F10203CCBF02
:104E600000250125032B00F28F80DFE803F07D7F12
:104E70003171DDE914531D4405F23240202813DD61
:104E8000C0F14000009B08FA00F805F2124023FA36
:104E900000F048EA0000FBF7DDFA01238246A1F1A9
:104EA000F87B013D139372E7009BC0F1200003FAE9
:104EB00000F0F0E70123B1E70F90B0E7059BA3EB0B
:104EC0000A030593CAF10003079300230E93BBE77F
:104ED00001230A930B9B002B59DD02939946666AC6
:104EE00000227260042202F114009842716853D9C2
:104EF000204600F0AAFC636A3060B9F10E0FD3F8C7
:104F000000B000F2E680002D00F0E3809DED007B14
:104F1000BAF1000F8DED107B74DD2A4A0AF00F0301
:104F200002EBC30393ED007B4FEA2A16F0068DEDEA
:104F3000087B65D5244BDDE91001D3E90823FBF795
:104F40002DFCCDE9000106F00F0603251E4F4CE0B5
:104F500001230A930B9B534403F1010902934B462F
:104F6000012BB8BF0123BAE70023B2E70023F0E723
:104F70000125002306930A954FF0FF3302939946CB
:104F8000002212230B92AAE701230A93F4E70123DC
:104F9000029399461A46F5E7013171605200A2E783
:104FA00061436F63A787D23FB3C8608B288AC63F2F
:104FB000FB799F501344D33F0000F07F0164000849
:104FC0000000F83F60640008386400082D640008A1
:104FD000F10708D5DDE90801D7E90023FBF7B4FAAA
:104FE000CDE90801013576100837002EF0D1DDE952
:104FF0000823DDE90001FBF7D1FBCDE900011AE050
:105000000225A3E700F0A080CAF100069F4BA04F45
:1050100006F00F0203EBC203D3E90023DDE9100120
:10502000FBF792FACDE90001361100230225002E8C
:105030007FD1002BE1D10F9B002B00F08780DDE9B1
:1050400000670022934B30463946FBF7EFFC0028FF
:105050007CD0B9F1000F79D0029B002B35DD0AF12D
:10506000FF330893394600228B4B3046FBF76CFA2E
:10507000CDE90001029F01352846FBF7FBF9DDE988
:105080000023FBF761FA0022844BFBF7A7F80546E3
:10509000A1F15076002F5DD10022814BDDE90001A6
:1050A000FBF79AF82A463346CDE90001FBF7DCFC12
:1050B000002840F088822A4606F10043DDE900011D
:1050C000FBF7B4FC002840F07C82DDE91023CDE939
:1050D0000023159B002BC0F25081BAF10E0F00F394
:1050E0004C816A4B03EBCA0393ED007B0B9B002BB7
:1050F0008DED027B80F2D880B9F1000F00F3D480EF
:1051000040F05E820022664B51EC170BFBF71CFA55
:10511000DDE90023FBF79EFC4F464E46002840F099
:10512000348231230BF101058BF800300AF1010ABA
:105130002FE2F20705D5D7E90023FBF705FA013581
:1051400001237610083772E7022574E7CDF820A016
:105150004F4691E74D4B03EBC70353E902010A9B0E
:10516000002B47D002460B4600204E49FBF716FBAA
:105170002A463346FBF730F8CDE90C015D46DDE900
:105180000001FBF77BFC0646FBF774F902460B4671
:10519000DDE90001FBF720F8303605F8016BDDE9A9
:1051A0000C23CDE90001FBF741FC002863D1DDE9C8
:1051B000002300203749FBF70FF8DDE90C23FBF74C
:1051C00035FC002840F0B780A5EB0B039F427FF72A
:1051D0007CAF0022304BDDE90C01FBF7B5F9002272
:1051E000CDE90C012C4BDDE90001FBF7ADF9CDE970
:1051F0000001C4E72A463346FBF7A6F9CDE90C01C6
:105200000BEB07055E46DDE90001FBF737FC0746BF
:10521000FBF730F9303702460B46DDE90001FAF7BB
:10522000DBFF06F8017BAE42CDE900014FF0000242
:1052300026D11C4BDDE90C01FAF7D0FF02460B46E4
:10524000DDE90001FBF710FC002874D1DDE90C2337
:1052500000201449FAF7C0FF02460B46DDE90001C1
:10526000FBF7E4FB00283FF430AF15F8013C302B8E
:1052700005F1FF3202D0DDF820A04AE01546F4E740
:10528000054BFBF761F9CDE90001BCE7606400085C
:10529000386400080000F03F0000244000001C407B
:1052A000000014400000E03FDDE900675D46DDE9F5
:1052B000022330463946FBF771FAFBF7DFFB8046E5
:1052C000FBF7D8F8DDE90223FBF73EF902460B466F
:1052D0003046394608F13006FAF77EFF05F8016BD3
:1052E000A5EB0B06B14502460B4639D1FAF776FF1E
:1052F000DDE9022306460F46FBF7B6FBC8B9DDE938
:10530000022330463946FBF787FB10B118F0010F36
:105310000FD10499204600F0CCFA0023129A2B708A
:105320000AF101031360219B002B00F041821D60F4
:105330003EE2CDF820A015F8012C392A05F1FF3303
:1053400008D19B450AD1089B0133089330238BF881
:1053500000305B461A7801321A708CE71D46EAE786
:1053600000229B4BFBF7F0F80022002306460F4675
:10537000FBF752FB00289AD0CBE70A9A002A00F0EC
:105380008B80069A012A6EDC139A002A67D003F2FA
:105390003343079F059D059A01211A442046059233
:1053A000984400F026FB0646002D0CDDB8F1000FF6
:1053B00009DD4545059A2B46A8BF4346D21A0592FA
:1053C000ED1AA8EB0308079BEBB10A9B002B67D0F3
:1053D0008FB131463A46204600F0AAFB049A0146B6
:1053E0000646204600F00EFB04990890204600F087
:1053F00060FA089B0493079BDA1B04D004992046AB
:1054000000F096FB04900121204600F0F2FA0E9B7A
:105410000746002B00F0D0811A460146204600F0D6
:1054200087FB069B012B074640DC009B002B39D1F4
:10543000019BC3F31303002B36D1019B23F00043E0
:105440001B0D1B052BB1059B0133059308F10108CA
:10545000012307930E9B002B2AD1012030E0149BDF
:10546000C3F1360395E7079B09F1FF37BB42BFBF86
:10547000079B0797FA1A0E9BBBBF9B180E93DF1B67
:105480000027B9F1000FB5BF059B059DA3EB0905EA
:105490004B46B8BF00237EE7079F059D0A9E83E722
:1054A000079AABE70023D4E7009BD2E700230793DA
:1054B0003B6907EB8303186900F04DFAC0F1200047
:1054C000404410F01F0047D0C0F12003042B3BDD07
:1054D000059BC0F11C000344059305448044059BD3
:1054E000002B05DD1A460499204600F06FFB04905E
:1054F000B8F1000F05DD39464246204600F066FB54
:1055000007460F9B53B33946049800F0B3FB0028BD
:1055100024DA00230A220499204600F0E1F90A9BCC
:1055200004900AF1FF3A002B00F04D810023314630
:105530000A22204600F0D4F9029B002B06464FDCDD
:10554000069B022B4CDD11E0C9D0059A1C331A448E
:1055500005921D449844C2E70346F6E7B9F1000FEF
:1055600038DC069B022B35DDCDF80890029B63B931
:1055700039460522204600F0B3F901460746049853
:1055800000F078FB00283FF7CCAD0B9B5D466FEA3F
:10559000030A4FF000093946204600F08AF9002E30
:1055A0003FF4B7AEB9F1000F05D0B14503D049467D
:1055B000204600F07EF93146204600F07AF9A8E650
:1055C00000273E46E1E7DDF820A03E46A9E500BF02
:1055D000000024400A9BCDF80890002B00F0FA80D0
:1055E000002D05DD31462A46204600F0EFFA06463A
:1055F000079B002B4CD07168204600F026F93269D9
:1056000002320546920006F10C010C3000F012F94E
:1056100001222946204600F0D9FA009BCDF814B0AB
:1056200003F00103B1460793064639460498FFF795
:10563000A7FA4946054600F13008049800F01AFB25
:10564000324600903946204600F02EFBC3680246E1
:1056500003BB01460890049800F00CFB089A03462F
:1056600011462046089300F024F9089BA3B9069A36
:1056700092B9079A82B9B8F1390F29D0009B002B53
:1056800001DD05F13108059B5D1C83F8008082E790
:105690003046C2E70123E3E7009A002A04DB25D164
:1056A000069A1ABB079A0ABB002BECDD012204996B
:1056B000204600F08BFA3946049000F0DBFA00280F
:1056C00003DCE0D118F0010FDDD0B8F1390FD8D1EB
:1056D000059B059A5D1C3923137015F8013C392B85
:1056E00005F1FF324FD00133137054E7059A002BB8
:1056F00002F1010506DDB8F1390FE9D008F1010822
:10570000059BC2E7029A05F8018CA5EB0B039342B7
:1057100021D000230A220499204600F0E1F8B14587
:1057200004904FF000034FF00A024946204605D18D
:1057300000F0D6F881460646059576E700F0D0F8E9
:105740003146814600230A22204600F0C9F8064669
:10575000F2E74FF0000901220499204600F036FAE2
:105760003946049000F086FA0028B6DC02D118F021
:10577000010FB2D115F8013C302B05F1FF327FF457
:105780000AAF1546F6E7934505D131230AF1010A20
:105790008BF80030FFE615469FE7DFF864B007E0BE
:1057A000219BDFF860B01BB10BF10803219A136055
:1057B000584617B0BDE8F08F069B012B7FF735AE3A
:1057C0000E9B079349E6029B002B03DC069B022BF2
:1057D0003FF7CCAE5D4639460498FFF7D1F900F1AA
:1057E000300805F8018B029AA5EB0B039A42B0DD55
:1057F00000230A220499204600F072F80490EAE798
:105800000064000824640008044B1B68186A044BF9
:10581000002808BF1846F030704700BF4400002041
:10582000A8000020024B0146186800F045BB00BFED
:105830004400002010B5431E0A44914200D110BD1F
:1058400011F8014B03F8014FF7E770B5456A0446BC
:105850000E463DB91020FFF7E5FF6062C0E9015533
:105860000560C560656AEB6883B1636ADB6853F8FD
:105870002600B8B9012101FA06F56A1D92002046FA
:1058800000F0BEFA60B1C0E901650EE021220421FA
:10589000204600F0B5FA636AE860DB68002BE4D1CB
:1058A000002070BD026843F826200023C0E90333BE
:1058B000F7E770B5446A06460D463CB91020FFF77D
:1058C000B1FF7062C0E901440460C4603DB1736A15
:1058D0006A68DB6853F82210296043F8225070BDD3
:1058E0002DE9F0410D691F4606460C4601F1140CE6
:1058F0000023DCF8000081B202FB01710F0C000CE8
:1059000002FB007089B2013301EB00419D424FEA76
:1059100010474CF8041BECDCD7B1A368AB4212DC97
:10592000616830460131FFF790FF2269023204F1CD
:105930000C01804692000C30FFF77CFF2146304678
:10594000FFF7B7FF444604EB850301355F6125612E
:105950002046BDE8F081020C12040346B2B90304EC
:10596000102013F07F4F04BF1B02083013F0704F5C
:1059700004BF1B01043013F0404F04BF9B000230F2
:10598000002B06DB5B0003D5013070470020E8E701
:1059900020207047036813F0070201460BD0DA0796
:1059A00023D4980749BF5B089B0801200B605CBFAC
:1059B0000B600220704798B2A8B91B0C102013F09E
:1059C000FF0F04BF1B0A08301A0704BF1B0904306D
:1059D0009A0704BF9B080230DA0702D45B0806D09E
:1059E00001300B6070471046E9E700207047202027
:1059F000704710B50C460121FFF727FF01224461D3
:105A0000026110BD2DE9F74F14460A6923699A42D5
:105A1000B8BF0B468846BCBFA0461C46D8F81070DD
:105A2000D4F81090D8F80830D8F8041007EB09061D
:105A3000B342B8BF0131FFF708FF00F1140505EBD1
:105A4000860E2B460022734516D304F1140208F18A
:105A5000140102EB890301EB87070093009B01927D
:105A600093420CD8002E03DD5EF8043D002B5DD080
:105A7000066103B0BDE8F08F43F8042BE3E7B2F80A
:105A800000B0BBF1000F23D08946AC464FF00008B0
:105A900059F8044BDCF800A0A3B21FFA8AFA0BFBFA
:105AA00003A34FEA144ADCF8004043444FEA144889
:105AB0000BFB0A8404EB1344E2469BB243EA044323
:105AC0004F454FEA14484AF8043B2BD8CCF80480E1
:105AD000019BB3F802A00432BAF1000F20D02B686A
